:060000000C9459000C9461
:1000060000000C9400000C9400000C9400000C946A
:1000160000000C9400000C9400000C9400000C945A
:1000260000000C9400000C9400000C9400000C944A
:1000360000000C9400000C9400000C9400000C943A
:1000460000000C948C000C9400000C9400000C949E
:1000560000000C9400000C9400000C9400000C941A
:1000660000000C9400000C9400000C9400000C940A
:1000760000000C9400000C9400000C9400000C94FA
:1000860000000C9400001027E80364000A00010039
:100096000010000110000100000000000000010037
:1000A60002009E0004000A00A0000000F894EE275B
:1000B600ECBBF1E0F5BFE5BFE0936C00F8E1F1BD04
:1000C600E1BD8DE0A2E0BB27ED938A95E9F780E0DC
:1000D60090E1A0E0B1E0ED930197E9F7E4EAF0E002
:1000E60085919591009761F0A591B5910590159030
:1000F600BF01F00105900D920197E1F7FB01F0CFEA
:100106008BBFEFEFEDBFE0E1EEBFC0E0D5E00C94B2
:100116001A01EA93FA93EFB7EA931A930A931BB17B
:100126000CB1E12FEC7189F4E52D5394F0E0E05029
:10013600FB4F0083E8E0E51509F455247394E8E0E5
:10014600E71519F47724689420F809911991E99133
:10015600EFBFF991E99118951A937720F1F3E42D01
:100166004394F0E0E050FB4F1081E8E0E41509F419
:100176004424F8947A947894E12F19910895ECDF49
:10018600E0930905E9DFE0930A05E6DFE093080559
:10019600E3DFE0930B05E0DFCE2EDEDFE0930C0518
:1001A60008955E9BFECF53985E9A0895539A0895DC
:1001B600549A089554980895EA81FB810E94A601F5
:1001C6008E2EEA81BE2EE881F9810E94A6016E2E4E
:1001D600E8819E2EE62DE75DE90DE80DEB0DAE2ECE
:1001E600EA2DE095DE2EE6DFE1DFEFEFEA938FD032
:1001F600EFEFEA938CD0E1E0EA9389D0E7E0EA9367
:1002060086D0E3E0EA9383D0EEE1EA9380D0BA9217
:100216007ED08A927CD09A927AD06A9278D0DA92FC
:1002260076D0BFDFC5DFABDFC1DF24960895E0E0FF
:10023600EBBBEABBE8BBE7BBE5BBE4BBE2BBE1BBB0
:10024600E3B9E2B9E0936200E0936100E0936500F0
:10025600E0936400E0BFE3BFE2BFE1BFEFBDEEBDE8
:10026600EDBDECBDE7BDE6BDEBBDEABDE9BDE8BD54
:10027600E0937900E0937800E5BDE4BDE3BDE0934B
:100286008B00E0938A00E0938900E0938800E09376
:100296008100E0938000E0938700E0938600E0937E
:1002A6008500E0938400E0938300E0938200E0936E
:1002B6006A00EABFE9BFE7BFE0937D00EBB9E8E972
:1002C600EAB9E6E0E0939500E0E0E0939000E5E02F
:1002D600E9B9E0E0E0939A00E0E8E8B9E0E0E0BDE3
:1002E600E6B9EDB9E09374007894E4EFF1E0FA939F
:1002F600EA93ECEBF2E00E949001E7E1F0E0FA937A
:10030600EA93E0E0F2E00E949001EFCFFFCF5D9B21
:10031600FECFE881ECB921960895FA93EA930E94FC
:10032600DF00ECEAFDE0FA93EA930C949A01E99176
:10033600F991309639F08DEC9AE00197F1F7A8958E
:100346003197C9F70895EF2FFF27E7FDFFEF0895CF
:00000001FF
